:020000040800F2
:10000000C8080020910100081F180008E316000826
:100010001D18000811060008D5190008000000008E
:10002000000000000000000000000000231800088D
:100030004B060008000000002118000825180008E1
:10004000AB010008AB010008AB010008AB010008E0
:10005000AB010008AB010008AB010008AB010008D0
:10006000AB010008AB010008AB0100081506000851
:10007000AB010008AB010008AB010008AB010008B0
:10008000AB010008AB010008AB010008AB010008A0
:10009000AB010008AB010008AB010008AB01000890
:1000A000AB010008AB010008AB010008AB01000880
:1000B000AB010008AB010008AB010008AB01000870
:1000C000AB010008AB010008AB010008AB01000860
:1000D000AB010008AB010008AB010008AB01000850
:1000E000AB010008AB010008AB01000800F002F80A
:1000F00000F03FF80AA090E8000C82448344AAF183
:100100000107DA4501D100F034F8AFF2090EBAE880
:100110000F0013F0010F18BFFB1A43F0010318473B
:10012000B8190000D8190000103A24BF78C878C167
:10013000FAD8520724BF30C830C144BF04680C60ED
:10014000704700000023002400250026103A28BF35
:1001500078C1FBD8520728BF30C148BF0B60704739
:10016000642900F07D80002070471FB51FBD10B5C9
:1001700010BD00F070F91146FFF7F7FF01F03CFCED
:1001800000F08EF903B4FFF7F2FF03BC00F096F91C
:100190000948804709480047FEE7FEE7FEE7FEE71B
:1001A000FEE7FEE7FEE7FEE7FEE7FEE70448054957
:1001B000054A064B70470000A1180008ED00000832
:1001C000C8020020C8080020C8040020C80400207D
:1001D0000FB41CB5074B06AA7B44694600900598EE
:1001E00000F021F90020694600F030F91CBC5DF8F0
:1001F00014FB0000710200002DE9F0410E46044698
:10020000002020622046E168884730B3252805D0C9
:10021000D4E901219047206A401CF2E7E1682046BA
:1002200000278847050018D0A5F14100192802D8F9
:1002300020354FF400673246294620462760FFF7F5
:100240008FFF40B1012804D0F61D26F007060836BE
:10025000D8E7361DD6E72846DAE7206ABDE8F08100
:100260002DE9F0410646002410687529314616A58F
:1002700010D0AFF30080002802DA404213A507E057
:1002800031688A0701D512A502E0490704D511A5F6
:10029000012401E0AFF3008000210A2206F12407C7
:1002A00009E0B0FBF2FCB0FBF2F302FB1C003030C3
:1002B00078541846491C0028F3D123462A46304674
:1002C000BDE8F04100F051B8000000002D00000032
:1002D0002B0000002000000010B5431C02E010F8C5
:1002E000011B71B18107FAD14FF0013202C88C1A9B
:1002F0008C4314EAC211F9D0C01A0A0603D0C01EFA
:1003000010BDC01A10BD0A0401D0801E10BD090224
:10031000FCD0401E10BD4FF0000200B513469446BD
:100320009646203922BFA0E80C50A0E80C50B1F14D
:100330002001BFF4F7AF090728BFA0E80C5048BF61
:100340000CC05DF804EB890028BF40F8042B08BFFF
:10035000704748BF20F8022B11F0804F18BF00F8FB
:10036000012B70477047704770472DE9F0470D46E5
:1003700099469246044600F124080168880604D58F
:10038000E06921F01001216000E00120A84201DDB8
:10039000471B00E00027A1697A1902EB0900081A3F
:1003A000A0612078C00602D42046AFF3008000266A
:1003B00008E0D4E901211AF806009047206A401CA1
:1003C000761C20624E45F4DB2078C0060AD5204614
:1003D000AFF3008006E0D4E9012130209047206A85
:1003E000401C2062381EA7F10107F4DC07E0D4E9C5
:1003F000012118F805009047206A401C2062281E41
:10040000A5F10105F3DC2046AFF30080207800065B
:1004100002D50220BDE8F0870120FBE701694A1CF4
:1004200002610878704700B58FB0CDE90131002135
:10043000059105497944CDE9031011466846FFF757
:10044000DBFE0FB000BD0000E5FFFFFF0A6802F809
:10045000010B0A607047754600F02CF8AE460500A7
:100460006946534620F00700854618B020B5FFF7CF
:100470009DFEBDE820404FF000064FF000074FF012
:1004800000084FF0000B21F00701AC46ACE8C009B2
:10049000ACE8C009ACE8C009ACE8C0098D467047BB
:1004A00010B50446AFF300802046BDE81040FFF7CA
:1004B00069BE00000048704764020020014918200E
:1004C000ABBEFEE7260002007047000070B5044690
:1004D00000688168C943C90717D1816821F001010B
:1004E000816000F0B3FC05460AE000BF00F0AEFCFE
:1004F000401B022804D920688068C043C00706D08A
:1005000020688068C043C007F0D0002070BDA06A9A
:1005100040F01000A062E06A40F00100E0620120BB
:1005200070BD10B50146406A826A12F0500F05D0C6
:10053000006A026BBDE8104008461047816A41F42A
:100540000071816201688968C1F3424107290CD1B9
:10055000017B51B9816A21F480718162816AC90489
:1005600003D4816A41F00101816200F0EFF810BD0F
:1005700010B5406A816A41F040018162C16A41F070
:100580000401C16200F0E4F810BD10B5406A00F04B
:10059000DEF810BDF8B500260446009600688168B4
:1005A000C943C9072DD0816841F001018160164817
:1005B00016490068B0FBF1F000E0401E00900028F2
:1005C000FBD100F043FC054616E000BF00F03EFC06
:1005D000401B022810D920688068C043C0070BD098
:1005E000A06A40F01000A062E06A40F00100E06202
:1005F00084F824600120F8BD20688068C043C007EB
:10060000E4D10020F8BD00001400002040420F009B
:10061000FEE70000014800F0F9B90000D801002011
:1006200030B590F840500124AC40C56B6C60046854
:1006300063604368102B036803D099600068C26050
:1006400030BD9A600068C16030BD704772B6FEE789
:10065000F8B50024009490F824202546012A12D0F1
:10066000012280F824204A681F23072A0DD2066839
:10067000776B521E02EB820293409F430B689340BC
:100680001F43776319E00220F8BD06680D2A0AD2DD
:10069000376BD21F02EB820293409F430B6893405B
:1006A0001F43376309E0F76A0D3A02EB8202934079
:1006B0009F430B6893401F43F7620A68072306684D
:1006C0000A2A0AD3F7680A3A02EB420293409F4390
:1006D0008B6893401F43F76008E0376902EB4202E2
:1006E00093409F438B6893401F4337610A68102AE9
:1006F00001D0112A20D1124B02689A4217D1936877
:100700001B0219D4936843F400039360096810290D
:1007100012D10C490C4A0968B1FBF2F101EB8101DD
:10072000490000E0491E00910029FBD104E0816AE4
:1007300041F020018162012480F824502046F8BD58
:10074000002401401400002040420F007047704711
:10075000704700002DE9F0414FF0000704003D46CE
:100760007ED0A06A002628B9E66284F8246020467C
:1007700000F07EF82046FFF7A9FEA16AC90600D462
:1007800020B1A06A40F01000A06269E0A16A21F4E3
:10079000885141F00201A1626268E169237B0A434A
:1007A00047EA43010A43A1684FF48077B94209D070
:1007B000012907D05FF0000194F814C0BCF1010FCB
:1007C00002D00AE03946F7E7F3B1A36A43F0200309
:1007D000A362E36A43F00103E3622368D3F804C031
:1007E0002CF4694C4CEA010CC3F804C021688B68F6
:1007F000DFF870C003EA0C0313438B60A168B942B1
:100800000BD0012909D00CE0DFF85CC0A3690CEB28
:1008100043330B4343F40061DFE7218A0D05A5F55F
:1008200080152168CB6A23F470032B43CB622168C7
:1008300089680E4B1940914208D1E662A16A21F005
:10084000020141F00101A162BDE8F081A06A20F03F
:10085000020040F01000A062E06A40F00100E06297
:100860000120F1E7FDF7E1FF00E0FFFFFE0E1FFFB3
:1008700070B586B000250646009501950295039552
:1008800000681A4988422ED11949886940F40070DD
:100890008861886900F400700490886940F0040061
:1008A00088618869694600F0040004900620009081
:1008B000032001900F4800F0CBF9104C0E48C4E91A
:1008C00000058020C4E90250400020618000606182
:1008D0002020C4E90605204600F042F908B1FFF7E0
:1008E000B5FE3462666206B070BD000000240140AF
:1008F000001002400008014008000240D80100201A
:100900002DE9F047894604463B4900683B4F0E1DE0
:100910009046884201D0B84207D1306810F4702F59
:1009200003D001252846BDE8F08794F8240001286B
:100930000CD0012084F824002046FFF72BFE050090
:100940004FF0000004D084F82400EBE70220EAE72F
:10095000A16A40F60162914341F48071A16221686D
:10096000B94218D1326812F4702F14D0A16A41F440
:100970008011A1623168490505D5A16A21F40051B1
:1009800041F48051A162A16AC9040AD5E16A21F04B
:100990000601E16206E0A26A22F48012A2624968BE
:1009A000E9E7E06284F82400216A15488862216A38
:1009B0001448C862216A1448086321686FF0020075
:1009C00008602068816841F4807181602168434635
:1009D0004A464C31206A00F0F1F820688168C1F382
:1009E00042410729816803D041F48011816099E771
:1009F00041F4A001FAE70000002401400028014072
:100A0000230500088B050008710500082DE9F05F3B
:100A1000C16B0C6801680B68D0F840C0042202FA70
:100A20000CF2494DDFF824A1494E4A4FDFF828B1B6
:100A3000DFF828E122422CD05A072AD50A6892060C
:100A400003D40A6822F004020A600168A94201D1B5
:100A5000042219E0514501D1402215E0B14202D1F2
:100A60004FF4806210E0B94202D14FF480420BE0B3
:100A7000594502D14FF4802206E0714502D14FF46E
:100A8000800201E04FF080622F4908394A60C16A54
:100A90003BE04FF0020808FA0CF818EA040F4FF098
:100AA00000094FF0010235D05FEA837832D50B6838
:100AB0009B0605D40B6823F00A030B6080F8212005
:100AC0000168A94201D1022219E0514501D1202239
:100AD00015E0B14202D14FF4007210E0B94202D1E8
:100AE0004FF400520BE0594502D14FF4003206E0BA
:100AF000714502D14FF4001201E04FF0007212492B
:100B000008394A6080F82090816A00291AD0BDE82F
:100B1000F05F0847082505FA0CF5254212D01B079F
:100B200010D50B6823F00E030B6090F84010C36BD8
:100B300002FA01F15960826380F8212080F8209048
:100B4000016BE2E7BDE8F09F080002401C00024094
:100B50003000024044000240580002406C00024055
:100B600030B528B308C8134914221944B1FBF2F177
:100B70008900C16310498163022141771A6843F6F5
:100B8000F0718A43D0E900142143D0E902452C4397
:100B9000214304692143446921438469214311436A
:100BA000196000214163012242770177084630BD78
:100BB000012030BDF8FFFDBF0000024070B50446C3
:100BC00090F82000002501280CD0012084F8200096
:100BD00094F821600020012E06D084F82000022520
:100BE000284670BD022070BD022684F82160A063F3
:100BF0002068066826F0010606602046FFF710FD13
:100C0000E06A00282068016802D041F00E0106E089
:100C100021F0040101602068016841F00A010160CF
:100C20002068016841F001010160D9E770B5044610
:100C300000F00CF90546601C02D00448007804441A
:100C400000F004F9401BA042FAD370BD0800002058
:100C50002DE9F84FDFF8B8910024A9F1040B2346E1
:100C60000F2709F1040AABF1040EC9E00125A540E4
:100C70002A40AA427DD1674ED1F804C0ACEB0608E9
:100C8000B44532D014DCBCF1030F3AD009DCBCF11E
:100C9000000F2AD0BCF1010F1CD0BCF1020F31D1E2
:100CA0001DE0BCF1110F17D0BCF1120F2AD119E0D1
:100CB000B8F5881F19D006DCB8F5803F15D0B8F517
:100CC000801F1FD111E0B8F5001F0ED0B8F5041F2A
:100CD00018D10AE0CB6815E0CB681B1D12E0CB6889
:100CE00008330FE0CB680C330CE08B682BB1012B81
:100CF0004FF0080303D0456104E0042302E00561DE
:100D000000E00023FF2A01D8064601E000F10406B6
:100D10004FEA840501D9A5F12005D6F8008007FA2D
:100D200005FC28EA0C0803FA05F548EA0508C6F8A8
:100D300000804D68ED0062D5374DAE6946F0010682
:100D4000AE61AD6924F0030605F001050095334D51
:100D500006EB050CDCF80850A607360F07FA06F874
:100D600025EA0805DFF8B880404503D14FF00008B8
:100D700017E044E0DFF8AC80404502D14FF00108B5
:100D80000FE0DFF8A480404502D14FF0020808E0F0
:100D9000DFF89880404502D14FF0030801E04FF0A2
:100DA000040808FA06F848EA0508CCF808804D68F7
:100DB000D9F80060ED024D4601D5164300E0964398
:100DC0002E604D68DAF80060AD02554601D5164335
:100DD00000E096432E604D68DBF80060AD035D4691
:100DE00001D5164300E096432E604D68DEF80060A2
:100DF000ED03754601D5164300E096432E60641C52
:100E00000D682A46E5407FF431AFBDE8F88F000059
:100E100008040140000011100010024000000140D1
:100E200000080140000C0140001001400014014086
:100E3000C26821EA02030A4043EA024101617047A5
:100E40000AB1016170470904FBE7000001488068AE
:100E500070470000080000200248816802781144B1
:100E60008160704708000020074810B5016841F014
:100E700010010160032000F075F80F2000F006F863
:100E800000F024F8002010BD0020024070B50D4D88
:100E900004464FF47A712878B1FBF0F00A490968EA
:100EA000B1FBF0F000F052FB48B9102C07D2002241
:100EB0002146501E00F036F800206C6070BD012005
:100EC00070BD000008000020140000200C4808B588
:100ED000816941F001018161816901F001010091A5
:100EE000C16941F08051C161C06900F0805000903B
:100EF0000448416821F0E06141F00071416008BDA3
:100F00000010024000000140002809DB00F01F0231
:100F1000012191404009800000F1E020C0F800115B
:100F200070470000F0B40E4B1B680C46C3F302235D
:100F3000C3F10705042D00D90425191D072901D285
:100F4000002300E0DB1E012606FA05F1491E2140C0
:100F500099409E40761E16403143F0BC00F03BBDE8
:100F60000CED00E0064900F0070208684FF6FF03A9
:100F7000184040EA0220034A10430860704700000E
:100F80000CED00E00000FA052DE9F8430546007875
:100F9000354CC00754D0E0690026C00008D4E06991
:100FA00040F08050E061E069012600F08050009040
:100FB0002E480168C90512D40168804641F4807149
:100FC0000160FFF743FF074605E000BFFFF73EFF64
:100FD000C01B642823D8D8F80000C005F6D5206AC5
:100FE00010F4407021D0A98801F4407181421CD0D6
:100FF000206A1F49012220F440700A6000220A6022
:101000002062C00711D0FFF721FF074641F2883860
:1010100008E000BFFFF71AFFC11B414502D90320BA
:10102000BDE8F883206A8007F4D5206A696820F457
:101030004070084320621EB1E06920F08050E061FA
:101040002878800705D56068A96820F440400843E7
:1010500060602878C00605D56068E96820F48000E3
:10106000084360600020DBE7001002400070004091
:10107000400442422DE9F0470F46050061D0434E3F
:10108000306800F00700B84209D2306820F007004D
:1010900038433060306800F00700B84251D128680A
:1010A0003B4C810712D5400703D5606840F4E060EF
:1010B00060602878000703D5606840F46050606085
:1010C0006068A96820F0F000084360602878C007D5
:1010D00028D06868012810D02168022810D089071C
:1010E00000292EDA616821F0030101436160FFF7F6
:1010F000ADFE804641F288390DE021688903EFE7B3
:101100008901EDE7FFF7A2FEA0EB0801494502D9EE
:101110000320BDE8F0876068696800F00C00B0EB60
:10112000810FEFD1306800F00700B8420BD930686A
:1011300020F0070038433060306800F00700B84204
:1011400001D00120E5E72878400705D56068E96807
:1011500020F4E060084360602878000706D56068E6
:10116000296920F4605040EAC100606000F038F85E
:101170006168084AC1F30311515CC8400649086020
:1011800006480068FFF782FE0020C2E70020024008
:1011900000100240BE1A0008140000200C000020BD
:1011A0000448054900684968044AC1F30221515CBA
:1011B000C84070471400002000100240CE1A0008FA
:1011C0000448054900684968044AC1F3C221515CDA
:1011D000C84070471400002000100240CE1A0008DA
:1011E0000E4A51680E4801F00C03042B11D0082B55
:1011F0000FD10C48C1F38343C903C05C0AD55168C1
:10120000084AC1F34041921E515C054A5043B0FB6D
:10121000F1F0704704494843704700000010024055
:1012200000127A00AE1A000800093D002DE9F84FBF
:10123000040070D02078C04DC00749D06868C0F362
:101240008100012807D06868C0F38100022809D115
:101250006868C00306D52868800339D5606800280F
:10126000E7D035E06068B0F5803F0BD010B1B0F545
:10127000A02F11D0286820F480302860286820F43E
:10128000802002E0286840F480302860606890B1D7
:10129000FFF7DCFD06460AE0286840F4802028605D
:1012A000F0E700BFFFF7D2FD801B642873D82868E1
:1012B0008003F7D50CE0FFF7C9FD064605E000BF47
:1012C000FFF7C4FD801B6428F0D828688003F7D49A
:1012D00020789A4E80074FF001094FF0000839D569
:1012E000686810F00C0F07D06868C0F3810002280E
:1012F00009D16868C00306D42868800714D520691E
:10130000012808D110E02069B0B1C6F80090FFF7BD
:101310009DFD074605E00AE1FFF798FDC01B022886
:10132000C4D828688007F7D52868616920F0F800DC
:1013300040EAC10028600DE0C6F80080FFF786FD96
:10134000074604E0FFF782FDC01B022823D8286867
:101350008007F7D4207800072CD57948A169D9B146
:10136000C0F80090FFF772FD074604E0FFF76EFD3E
:10137000C01B02280FD8686A8007F7D571484FF460
:10138000FA510068B0FBF1F0009000BF0098411ED8
:101390000091FAD20EE080E0C0F80080FFF756FD21
:1013A000074604E0FFF752FDC01B022875D8686AA3
:1013B0008007F7D42078400760D5E8690027C0008F
:1013C00008D4E86940F08050E861E869012700F03E
:1013D000805000905C480168C90513D401688346B9
:1013E00041F480710160FFF731FD824606E000BFE5
:1013F000FFF72CFDA0EB0A0064284ED8DBF80000B4
:10140000C005F5D5E06801280AD008B1052813D039
:10141000286A20F001002862286A20F0040002E017
:10142000286A40F001002862E06841F2883B98B1E8
:10143000FFF70CFD82460BE0286A40F004002862AA
:10144000EEE700BFFFF702FDA0EB0A0159455AD8AD
:10145000286A8007F6D50CE0FFF7F8FC824605E025
:10146000FFF7F4FCA0EB0A0159454CD8286A800725
:10147000F6D41FB1E86920F08050E861E06988B3D4
:101480006968C1F38101022944D00228C6F860804E
:1014900004D0FFF7DBFC044638E034E0FFF7D6FC6D
:1014A000074604E0FFF7D2FCC01B02282BD82868AF
:1014B0008001F7D4206AB0F5803F05D16868A16843
:1014C00020F4003008436860D4E9080108436968E3
:1014D00021F4741108436860C6F86090FFF7B6FC09
:1014E000044606E025E000BFFFF7B0FC001B022821
:1014F00009D828688001F7D51BE000BFFFF7A6FCDC
:10150000001B022802D90320BDE8F88F286880015B
:10151000F4D40EE00128F7D06868226A00F4803124
:10152000914204D1616A00F47010884201D0012018
:10153000EAE70020E8E70000001002400000424215
:1015400080044242140000200070004010B5401E8C
:10155000B0F1807F01D3012010BD4FF0E024606125
:101560000F21601700F037FA0020A06107202061EA
:10157000002010BD70B5040004D094F8410000258F
:1015800010B106E0012070BD84F84050204600F004
:1015900023F8242084F841002068C16821F4005118
:1015A000C160204600F07EF92068016921F4904175
:1015B00001612068416921F02A0141612068C16808
:1015C00041F40051C1606564202084F8410084F832
:1015D00042006563002070BD30B585B000240094E2
:1015E00001940294039400681449884224D1144859
:1015F000816941F480418161816901F480410491F4
:10160000816941F00401816180690E4D00F00400A0
:1016100004904FF40070009002200190032003908A
:1016200069462846FFF714FB2815CDE900046946F2
:1016300028460294FFF70CFB05B030BD003801408E
:1016400000100240000801402DE9F843044690F8DC
:1016500041001F4616460D46202802D00220BDE854
:10166000F8837DB176B100206064212084F84100C8
:10167000FFF7ECFBA6848046E684A068B0F5805FA7
:1016800002D003E00120EAE7206910B12E460025D0
:101690000EE000260CE08021204600F05FF9A0B9A2
:1016A000AEB116F8010B21684860E08C401EE08462
:1016B000E08C43464FF0000200970028EBD14FF03A
:1016C0004001204600F04AF930B10320C7E735F861
:1016D000020BC0F30800E6E7202084F84100002058
:1016E000BDE7FEE73EB50021164800910191144A7E
:1016F0000291026092158260012404730175022533
:101700004FF460220561C2614160FFF723F808B120
:10171000FEF79CFF07200094CDE901406946094887
:10172000FEF796FF08B1FEF791FF00956946054860
:101730000195FEF78DFF002801D0FEF787FF3EBD23
:1017400000240140A8010020094808B5416941F082
:10175000010141614069002200F001000090114642
:101760000B20FFF7DFFBBDE808400B20FFF7CCBBE9
:101770000010024030B585B000200090019002902A
:1017800003901648816941F010018161816901F07F
:1017900010010491816941F020018161816901F0AA
:1017A00020010491816941F0040181618069012275
:1017B00000F004000A4D5403049021462846FFF728
:1017C0003FFB01210320CDE90210CDE9004169462C
:1017D0002846FFF73DFA05B030BD0000001002407A
:1017E000001001400C4810B50A4901604FF4E13186
:1017F0004160002181600C22C160C0E90412816156
:10180000C161FFF7B7FE002803D0BDE81040FEF726
:101810001DBF10BD003801401C020020FEE7FEE79E
:1018200070477047FFF718BB30B593B02821684662
:10183000FEF771FD14210AA8FEF76DFD00250120B9
:101840000F9510951195010412958DE823000490D1
:101850004FF4E010CDE90810022407946846FFF722
:10186000E5FC08B172B6FEE70AA90F2081E8310055
:101870004FF48060CDE90D0502210AA8FFF7FAFBBD
:1018800008B172B6FEE74FF4004011900F940FA814
:10189000FFF77AFB002801D072B6FEE713B030BD27
:1018A0007047000070B5044600680169E26821F4E1
:1018B0004051114301612169A068084361690843EF
:1018C0002168CA6841F20C639A430243CA602068E7
:1018D0004169A26921F44071114341611E492068A8
:1018E000884202D1FFF76CFC01E0FFF759FC00EBE6
:1018F000C00101EB0012606864218000B2FBF0F3CC
:10190000B3FBF1F36FF018067343B2FBF0F5B2FBD3
:10191000F0F605EB8305322303EB0515B5FBF1F576
:10192000B6FBF1F605F0F00505EB0615B2FBF0F697
:10193000B2FBF0F0B0FBF1F06FF01802504306EB91
:10194000800003EB0010B0FBF1F0216800F00F0005
:101950002844886070BD0000003801402DE9F04146
:10196000984617460E460446069D27E0681C25D07B
:101970002DB1FFF76BFAA0EB0800A8421ED9206832
:101980000C3050E8001F21F4D07140E80012002A0A
:10199000F5D12068143050E8001F21F0010140E823
:1019A0000012002AF5D1202084F8410084F842007A
:1019B000002084F840000320BDE8F0812068006822
:1019C00036EA000004D00020B842CFD00020F3E770
:1019D0000120F9E7FEE70907090E002804DB00F102
:1019E000E02080F80014704700F00F0000F1E020C4
:1019F00080F8141D704700009AB0FFF735FAFFF722
:101A000013FFFFF7B7FEFFF79FFEFFF76BFEFFF731
:101A1000E9FEC8221E491F48FEF772FFDFF87880F2
:101A20001B4D1E4C00264FF4005739464046FFF729
:101A3000FFF90A20FFF7FAF866600020C4F800609A
:101A400035F8101022681144216005EB40016268EE
:101A50004988801C114480B26160C828F0D3216895
:101A60006420B1FBF0F222606168B1FBF0F30CA1DD
:101A700068466360FEF7ACFB6846FEF72DFC82B259
:101A80004FF47A7369460848FFF7DEFDCDE70000A2
:101A900018000020A80100200010014000000020D4
:101AA00025642C25640D0A001C020020010202039B
:101AB0000405060708090A0B0C0D0E0F1010000094
:101AC00000000000000001020304060708090000EE
:101AD0000000010203040000F81A000800000020C2
:101AE0001800000028010008101B00081800002042
:101AF000B0080000440100080000000000000000E1
:101B00000100000010000000000000000024F400AC
:04000005080000ED02
:00000001FF
