:020000040800F2
:100000001009002091010008E71C0008DF1A000811
:10001000E51C000811060008D520000800000000BB
:10002000000000000000000000000000EB1C0008C1
:100030004B06000800000000E91C0008ED1C000849
:10004000AB010008AB010008AB010008AB010008E0
:10005000AB010008AB010008AB010008AB010008D0
:10006000AB010008AB010008AB0100081506000851
:10007000AB010008AB010008AB010008AB010008B0
:10008000AB010008AB010008AB010008AB010008A0
:10009000AB010008AB010008AB010008AB01000890
:1000A000AB010008AB010008AB010008AB01000880
:1000B000AB010008AB010008AB010008AB01000870
:1000C000AB010008AB010008AB010008AB01000860
:1000D000AB010008AB010008AB010008AB01000850
:1000E000AB010008AB010008AB01000800F002F80A
:1000F00000F03FF80AA090E8000C82448344AAF183
:100100000107DA4501D100F034F8AFF2090EBAE880
:100110000F0013F0010F18BFFB1A43F0010318473B
:10012000E820000008210000103A24BF78C878C1F8
:10013000FAD8520724BF30C830C144BF04680C60ED
:10014000704700000023002400250026103A28BF35
:1001500078C1FBD8520728BF30C148BF0B60704739
:10016000642900F07D80002070471FB51FBD10B5C9
:1001700010BD00F070F91146FFF7F7FF01F0BCFF6A
:1001800000F08EF903B4FFF7F2FF03BC00F096F91C
:100190000948804709480047FEE7FEE7FEE7FEE71B
:1001A000FEE7FEE7FEE7FEE7FEE7FEE70448054957
:1001B000054A064B70470000691D0008ED00000865
:1001C0001003002010090020100500201005002059
:1001D0000FB41CB5074B06AA7B44694600900598EE
:1001E00000F021F90020694600F030F91CBC5DF8F0
:1001F00014FB0000710200002DE9F0410E46044698
:10020000002020622046E168884730B3252805D0C9
:10021000D4E901219047206A401CF2E7E1682046BA
:1002200000278847050018D0A5F14100192802D8F9
:1002300020354FF400673246294620462760FFF7F5
:100240008FFF40B1012804D0F61D26F007060836BE
:10025000D8E7361DD6E72846DAE7206ABDE8F08100
:100260002DE9F0410646002410687529314616A58F
:1002700010D0AFF30080002802DA404213A507E057
:1002800031688A0701D512A502E0490704D511A5F6
:10029000012401E0AFF3008000210A2206F12407C7
:1002A00009E0B0FBF2FCB0FBF2F302FB1C003030C3
:1002B00078541846491C0028F3D123462A46304674
:1002C000BDE8F04100F051B8000000002D00000032
:1002D0002B0000002000000010B5431C02E010F8C5
:1002E000011B71B18107FAD14FF0013202C88C1A9B
:1002F0008C4314EAC211F9D0C01A0A0603D0C01EFA
:1003000010BDC01A10BD0A0401D0801E10BD090224
:10031000FCD0401E10BD4FF0000200B513469446BD
:100320009646203922BFA0E80C50A0E80C50B1F14D
:100330002001BFF4F7AF090728BFA0E80C5048BF61
:100340000CC05DF804EB890028BF40F8042B08BFFF
:10035000704748BF20F8022B11F0804F18BF00F8FB
:10036000012B70477047704770472DE9F0470D46E5
:1003700099469246044600F124080168880604D58F
:10038000E06921F01001216000E00120A84201DDB8
:10039000471B00E00027A1697A1902EB0900081A3F
:1003A000A0612078C00602D42046AFF3008000266A
:1003B00008E0D4E901211AF806009047206A401CA1
:1003C000761C20624E45F4DB2078C0060AD5204614
:1003D000AFF3008006E0D4E9012130209047206A85
:1003E000401C2062381EA7F10107F4DC07E0D4E9C5
:1003F000012118F805009047206A401C2062281E41
:10040000A5F10105F3DC2046AFF30080207800065B
:1004100002D50220BDE8F0870120FBE701694A1CF4
:1004200002610878704700B58FB0CDE90131002135
:10043000059105497944CDE9031011466846FFF757
:10044000DBFE0FB000BD0000E5FFFFFF0A6802F809
:10045000010B0A607047754600F02CF8AE460500A7
:100460006946534620F00700854618B020B5FFF7CF
:100470009DFEBDE820404FF000064FF000074FF012
:1004800000084FF0000B21F00701AC46ACE8C009B2
:10049000ACE8C009ACE8C009ACE8C0098D467047BB
:1004A00010B50446AFF300802046BDE81040FFF7CA
:1004B00069BE000000487047AC02002001491820C6
:1004C000ABBEFEE7260002007047000070B5044690
:1004D00000688168C943C90717D1816821F001010B
:1004E000816000F0B3FC05460AE000BF00F0AEFCFE
:1004F000401B022804D920688068C043C00706D08A
:1005000020688068C043C007F0D0002070BDA06A9A
:1005100040F01000A062E06A40F00100E0620120BB
:1005200070BD10B50146406A826A12F0500F05D0C6
:10053000006A026BBDE8104008461047816A41F42A
:100540000071816201688968C1F3424107290CD1B9
:10055000017B51B9816A21F480718162816AC90489
:1005600003D4816A41F00101816200F0EFF810BD0F
:1005700010B5406A816A41F040018162C16A41F070
:100580000401C16200F0E4F810BD10B5406A00F04B
:10059000DEF810BDF8B500260446009600688168B4
:1005A000C943C9072DD0816841F001018160164817
:1005B00016490068B0FBF1F000E0401E00900028F2
:1005C000FBD100F043FC054616E000BF00F03EFC06
:1005D000401B022810D920688068C043C0070BD098
:1005E000A06A40F01000A062E06A40F00100E06202
:1005F00084F824600120F8BD20688068C043C007EB
:10060000E4D10020F8BD00001400002040420F009B
:10061000FEE70000014800F0F9B90000D801002011
:1006200030B590F840500124AC40C56B6C60046854
:1006300063604368102B036803D099600068C26050
:1006400030BD9A600068C16030BD704772B6FEE789
:10065000F8B50024009490F824202546012A12D0F1
:10066000012280F824204A681F23072A0DD2066839
:10067000776B521E02EB820293409F430B689340BC
:100680001F43776319E00220F8BD06680D2A0AD2DD
:10069000376BD21F02EB820293409F430B6893405B
:1006A0001F43376309E0F76A0D3A02EB8202934079
:1006B0009F430B6893401F43F7620A68072306684D
:1006C0000A2A0AD3F7680A3A02EB420293409F4390
:1006D0008B6893401F43F76008E0376902EB4202E2
:1006E00093409F438B6893401F4337610A68102AE9
:1006F00001D0112A20D1124B02689A4217D1936877
:100700001B0219D4936843F400039360096810290D
:1007100012D10C490C4A0968B1FBF2F101EB8101DD
:10072000490000E0491E00910029FBD104E0816AE4
:1007300041F020018162012480F824502046F8BD58
:10074000002401401400002040420F007047704711
:10075000704700002DE9F0414FF0000704003D46CE
:100760007ED0A06A002628B9E66284F8246020467C
:1007700000F07EF82046FFF7A9FEA16AC90600D462
:1007800020B1A06A40F01000A06269E0A16A21F4E3
:10079000885141F00201A1626268E169237B0A434A
:1007A00047EA43010A43A1684FF48077B94209D070
:1007B000012907D05FF0000194F814C0BCF1010FCB
:1007C00002D00AE03946F7E7F3B1A36A43F0200309
:1007D000A362E36A43F00103E3622368D3F804C031
:1007E0002CF4694C4CEA010CC3F804C021688B68F6
:1007F000DFF870C003EA0C0313438B60A168B942B1
:100800000BD0012909D00CE0DFF85CC0A3690CEB28
:1008100043330B4343F40061DFE7218A0D05A5F55F
:1008200080152168CB6A23F470032B43CB622168C7
:1008300089680E4B1940914208D1E662A16A21F005
:10084000020141F00101A162BDE8F081A06A20F03F
:10085000020040F01000A062E06A40F00100E06297
:100860000120F1E7FDF7E1FF00E0FFFFFE0E1FFFB3
:1008700070B586B000250646009501950295039552
:1008800000681A4988422ED11949886940F40070DD
:100890008861886900F400700490886940F0040061
:1008A00088618869694600F0040004900620009081
:1008B000032001900F4800F0CBF9104C0E48C4E91A
:1008C00000058020C4E90250400020618000606182
:1008D0002020C4E90605204600F042F908B1FFF7E0
:1008E000B5FE3462666206B070BD000000240140AF
:1008F000001002400008014008000240D80100201A
:100900002DE9F047894604463B4900683B4F0E1DE0
:100910009046884201D0B84207D1306810F4702F59
:1009200003D001252846BDE8F08794F8240001286B
:100930000CD0012084F824002046FFF72BFE050090
:100940004FF0000004D084F82400EBE70220EAE72F
:10095000A16A40F60162914341F48071A16221686D
:10096000B94218D1326812F4702F14D0A16A41F440
:100970008011A1623168490505D5A16A21F40051B1
:1009800041F48051A162A16AC9040AD5E16A21F04B
:100990000601E16206E0A26A22F48012A2624968BE
:1009A000E9E7E06284F82400216A15488862216A38
:1009B0001448C862216A1448086321686FF0020075
:1009C00008602068816841F4807181602168434635
:1009D0004A464C31206A00F0F1F820688168C1F382
:1009E00042410729816803D041F48011816099E771
:1009F00041F4A001FAE70000002401400028014072
:100A0000230500088B050008710500082DE9F05F3B
:100A1000C16B0C6801680B68D0F840C0042202FA70
:100A20000CF2494DDFF824A1494E4A4FDFF828B1B6
:100A3000DFF828E122422CD05A072AD50A6892060C
:100A400003D40A6822F004020A600168A94201D1B5
:100A5000042219E0514501D1402215E0B14202D1F2
:100A60004FF4806210E0B94202D14FF480420BE0B3
:100A7000594502D14FF4802206E0714502D14FF46E
:100A8000800201E04FF080622F4908394A60C16A54
:100A90003BE04FF0020808FA0CF818EA040F4FF098
:100AA00000094FF0010235D05FEA837832D50B6838
:100AB0009B0605D40B6823F00A030B6080F8212005
:100AC0000168A94201D1022219E0514501D1202239
:100AD00015E0B14202D14FF4007210E0B94202D1E8
:100AE0004FF400520BE0594502D14FF4003206E0BA
:100AF000714502D14FF4001201E04FF0007212492B
:100B000008394A6080F82090816A00291AD0BDE82F
:100B1000F05F0847082505FA0CF5254212D01B079F
:100B200010D50B6823F00E030B6090F84010C36BD8
:100B300002FA01F15960826380F8212080F8209048
:100B4000016BE2E7BDE8F09F080002401C00024094
:100B50003000024044000240580002406C00024055
:100B600030B528B308C8134914221944B1FBF2F177
:100B70008900C16310498163022141771A6843F6F5
:100B8000F0718A43D0E900142143D0E902452C4397
:100B9000214304692143446921438469214311436A
:100BA000196000214163012242770177084630BD78
:100BB000012030BDF8FFFDBF0000024070B50446C3
:100BC00090F82000002501280CD0012084F8200096
:100BD00094F821600020012E06D084F82000022520
:100BE000284670BD022070BD022684F82160A063F3
:100BF0002068066826F0010606602046FFF710FD13
:100C0000E06A00282068016802D041F00E0106E089
:100C100021F0040101602068016841F00A010160CF
:100C20002068016841F001010160D9E770B5044610
:100C300000F00CF90546601C02D00448007804441A
:100C400000F004F9401BA042FAD370BD0800002058
:100C50002DE9F84FDFF8B8910024A9F1040B2346E1
:100C60000F2709F1040AABF1040EC9E00125A540E4
:100C70002A40AA427DD1674ED1F804C0ACEB0608E9
:100C8000B44532D014DCBCF1030F3AD009DCBCF11E
:100C9000000F2AD0BCF1010F1CD0BCF1020F31D1E2
:100CA0001DE0BCF1110F17D0BCF1120F2AD119E0D1
:100CB000B8F5881F19D006DCB8F5803F15D0B8F517
:100CC000801F1FD111E0B8F5001F0ED0B8F5041F2A
:100CD00018D10AE0CB6815E0CB681B1D12E0CB6889
:100CE00008330FE0CB680C330CE08B682BB1012B81
:100CF0004FF0080303D0456104E0042302E00561DE
:100D000000E00023FF2A01D8064601E000F10406B6
:100D10004FEA840501D9A5F12005D6F8008007FA2D
:100D200005FC28EA0C0803FA05F548EA0508C6F8A8
:100D300000804D68ED0062D5374DAE6946F0010682
:100D4000AE61AD6924F0030605F001050095334D51
:100D500006EB050CDCF80850A607360F07FA06F874
:100D600025EA0805DFF8B880404503D14FF00008B8
:100D700017E044E0DFF8AC80404502D14FF00108B5
:100D80000FE0DFF8A480404502D14FF0020808E0F0
:100D9000DFF89880404502D14FF0030801E04FF0A2
:100DA000040808FA06F848EA0508CCF808804D68F7
:100DB000D9F80060ED024D4601D5164300E0964398
:100DC0002E604D68DAF80060AD02554601D5164335
:100DD00000E096432E604D68DBF80060AD035D4691
:100DE00001D5164300E096432E604D68DEF80060A2
:100DF000ED03754601D5164300E096432E60641C52
:100E00000D682A46E5407FF431AFBDE8F88F000059
:100E100008040140000011100010024000000140D1
:100E200000080140000C0140001001400014014086
:100E3000C26821EA02030A4043EA024101617047A5
:100E40000AB1016170470904FBE7000001488068AE
:100E500070470000080000200248816802781144B1
:100E60008160704708000020074810B5016841F014
:100E700010010160032000F075F80F2000F006F863
:100E800000F024F8002010BD0020024070B50D4D88
:100E900004464FF47A712878B1FBF0F00A490968EA
:100EA000B1FBF0F000F052FB48B9102C07D2002241
:100EB0002146501E00F036F800206C6070BD012005
:100EC00070BD000008000020140000200C4808B588
:100ED000816941F001018161816901F001010091A5
:100EE000C16941F08051C161C06900F0805000903B
:100EF0000448416821F0E06141F00071416008BDA3
:100F00000010024000000140002809DB00F01F0231
:100F1000012191404009800000F1E020C0F800115B
:100F200070470000F0B40E4B1B680C46C3F302235D
:100F3000C3F10705042D00D90425191D072901D285
:100F4000002300E0DB1E012606FA05F1491E2140C0
:100F500099409E40761E16403143F0BC01F0BBB86C
:100F60000CED00E0064900F0070208684FF6FF03A9
:100F7000184040EA0220034A10430860704700000E
:100F80000CED00E00000FA052DE9F8430546007875
:100F9000354CC00754D0E0690026C00008D4E06991
:100FA00040F08050E061E069012600F08050009040
:100FB0002E480168C90512D40168804641F4807149
:100FC0000160FFF743FF074605E000BFFFF73EFF64
:100FD000C01B642823D8D8F80000C005F6D5206AC5
:100FE00010F4407021D0A98801F4407181421CD0D6
:100FF000206A1F49012220F440700A6000220A6022
:101000002062C00711D0FFF721FF074641F2883860
:1010100008E000BFFFF71AFFC11B414502D90320BA
:10102000BDE8F883206A8007F4D5206A696820F457
:101030004070084320621EB1E06920F08050E061FA
:101040002878800705D56068A96820F440400843E7
:1010500060602878C00605D56068E96820F48000E3
:10106000084360600020DBE7001002400070004091
:10107000400442422DE9F0470F46050061D0434E3F
:10108000306800F00700B84209D2306820F007004D
:1010900038433060306800F00700B84251D128680A
:1010A0003B4C810712D5400703D5606840F4E060EF
:1010B00060602878000703D5606840F46050606085
:1010C0006068A96820F0F000084360602878C007D5
:1010D00028D06868012810D02168022810D089071C
:1010E00000292EDA616821F0030101436160FFF7F6
:1010F000ADFE804641F288390DE021688903EFE7B3
:101100008901EDE7FFF7A2FEA0EB0801494502D9EE
:101110000320BDE8F0876068696800F00C00B0EB60
:10112000810FEFD1306800F00700B8420BD930686A
:1011300020F0070038433060306800F00700B84204
:1011400001D00120E5E72878400705D56068E96807
:1011500020F4E060084360602878000706D56068E6
:10116000296920F4605040EAC100606000F038F85E
:101170006168084AC1F30311515CC8400649086020
:1011800006480068FFF782FE0020C2E70020024008
:1011900000100240EE210008140000200C00002086
:1011A0000448054900684968044AC1F30221515CBA
:1011B000C84070471400002000100240FE210008C3
:1011C0000448054900684968044AC1F3C221515CDA
:1011D000C84070471400002000100240FE210008A3
:1011E0000E4A51680E4801F00C03042B11D0082B55
:1011F0000FD10C48C1F38343C903C05C0AD55168C1
:10120000084AC1F34041921E515C054A5043B0FB6D
:10121000F1F0704704494843704700000010024055
:1012200000127A00DE21000800093D002DE9F84F88
:10123000040070D02078C04DC00749D06868C0F362
:101240008100012807D06868C0F38100022809D115
:101250006868C00306D52868800339D5606800280F
:10126000E7D035E06068B0F5803F0BD010B1B0F545
:10127000A02F11D0286820F480302860286820F43E
:10128000802002E0286840F480302860606890B1D7
:10129000FFF7DCFD06460AE0286840F4802028605D
:1012A000F0E700BFFFF7D2FD801B642873D82868E1
:1012B0008003F7D50CE0FFF7C9FD064605E000BF47
:1012C000FFF7C4FD801B6428F0D828688003F7D49A
:1012D00020789A4E80074FF001094FF0000839D569
:1012E000686810F00C0F07D06868C0F3810002280E
:1012F00009D16868C00306D42868800714D520691E
:10130000012808D110E02069B0B1C6F80090FFF7BD
:101310009DFD074605E00AE1FFF798FDC01B022886
:10132000C4D828688007F7D52868616920F0F800DC
:1013300040EAC10028600DE0C6F80080FFF786FD96
:10134000074604E0FFF782FDC01B022823D8286867
:101350008007F7D4207800072CD57948A169D9B146
:10136000C0F80090FFF772FD074604E0FFF76EFD3E
:10137000C01B02280FD8686A8007F7D571484FF460
:10138000FA510068B0FBF1F0009000BF0098411ED8
:101390000091FAD20EE080E0C0F80080FFF756FD21
:1013A000074604E0FFF752FDC01B022875D8686AA3
:1013B0008007F7D42078400760D5E8690027C0008F
:1013C00008D4E86940F08050E861E869012700F03E
:1013D000805000905C480168C90513D401688346B9
:1013E00041F480710160FFF731FD824606E000BFE5
:1013F000FFF72CFDA0EB0A0064284ED8DBF80000B4
:10140000C005F5D5E06801280AD008B1052813D039
:10141000286A20F001002862286A20F0040002E017
:10142000286A40F001002862E06841F2883B98B1E8
:10143000FFF70CFD82460BE0286A40F004002862AA
:10144000EEE700BFFFF702FDA0EB0A0159455AD8AD
:10145000286A8007F6D50CE0FFF7F8FC824605E025
:10146000FFF7F4FCA0EB0A0159454CD8286A800725
:10147000F6D41FB1E86920F08050E861E06988B3D4
:101480006968C1F38101022944D00228C6F860804E
:1014900004D0FFF7DBFC044638E034E0FFF7D6FC6D
:1014A000074604E0FFF7D2FCC01B02282BD82868AF
:1014B0008001F7D4206AB0F5803F05D16868A16843
:1014C00020F4003008436860D4E9080108436968E3
:1014D00021F4741108436860C6F86090FFF7B6FC09
:1014E000044606E025E000BFFFF7B0FC001B022821
:1014F00009D828688001F7D51BE000BFFFF7A6FCDC
:10150000001B022802D90320BDE8F88F286880015B
:10151000F4D40EE00128F7D06868226A00F4803124
:10152000914204D1616A00F47010884201D0012018
:10153000EAE70020E8E70000001002400000424215
:1015400080044242140000200070004010B5401E8C
:10155000B0F1807F01D3012010BD4FF0E024606125
:101560000F21601700F0B7FD0020A0610720206167
:10157000002010BD70B590F83C20012A26D001242F
:1015800080F83C40022280F83D2003685A689D683C
:1015900022F070060A6832435A600D4B02689A4284
:1015A00008D0B2F1804F05D00A4B9A4202D00A4BC4
:1015B0009A4204D1496825F080031943916080F86C
:1015C0003D40002180F83C10084670BD022070BDEF
:1015D000002C0140000400400008004010B5040049
:1015E00003D094F83D0010B107E0012010BD0020A9
:1015F00084F83C00204600F01FF8022084F83D00EB
:10160000211D206800F0B2FB012084F8460084F818
:101610003E0084F83F0084F8400084F8410084F8DC
:10162000420084F8430084F8440084F8450084F8BC
:101630003D00002010BD000008B500680649884242
:1016400008D10648C16941F00201C161C06900F0DA
:101650000200009008BD000000040040001002409D
:1016600070B5044690F83C000025012817D00126EB
:1016700084F83C60022084F83D002068826822F0F3
:10168000770222F47F4282600868502838D00DDC4F
:1016900020284FD005DC90B3102811D14AE0022059
:1016A00070BD302846D040280AD13BE060282FD0BA
:1016B00070280DD0B0F5805F03D0B0F5005F12D078
:1016C000012584F83D60002084F83C00284670BD68
:1016D000CB68D1E90121206800F08BFB206881688C
:1016E00041F0770109E0CB68D1E90121206800F0E1
:1016F00080FB2068816841F480418160E1E719E066
:10170000CA684968206800F029FC5021206806E07A
:10171000CA684968206800F032FC6021206800F047
:1017200072FBCEE7CA684968206800F017FC4021C8
:101730002068F4E7226801461046F0E730B585B02E
:1017400000210091019102910391006813498842A0
:1017500022D11348816941F004018161816901F05E
:1017600004010491816941F00801816180690224CA
:1017700000F008000490C020CDE90004032569466C
:1017800003950848FFF764FA0120CDE90004694693
:1017900003950548FFF75CFA05B030BD0004004032
:1017A0000010024000080140000C014070B50446E2
:1017B00090F83C0000260D4601280FD0012084F847
:1017C0003C006AB1042A1DD0082A2FD00C2A3FD031
:1017D0000126002084F83C00304670BD022070BD18
:1017E000206800F019FB2068816941F008018161DF
:1017F0002068816921F004018161206881692A697A
:10180000114311E0206800F02FFB2068816941F44A
:10181000006181612068816921F4806181612068B3
:1018200081692A6941EA02218161D2E7206800F0DA
:1018300047FB2068C16941F00801C1612068C169A6
:1018400021F00401C1612068C1692A69114311E0D6
:10185000206800F061FB2068C16941F40061C1614A
:101860002068C16921F48061C1612068C1692A6969
:1018700041EA0221C161ACE710B5040003D094F83D
:101880003D0010B107E0012010BD002084F83C00AD
:10189000204600F01EF8022084F83D00211D20683B
:1018A00000F064FA012084F8460084F83E0084F8D1
:1018B0003F0084F8400084F8410084F8420084F836
:1018C000430084F8440084F8450084F83D0000207B
:1018D00010BD704710B50446022249B104290ED04C
:1018E000082913D094F84100012816D0012010BD1A
:1018F00094F83E000128F9D184F83E200FE094F8D6
:101900003F000128F2D184F83F2008E094F840001D
:101910000128EBD184F8402001E084F84120012225
:10192000206800F059FA0F492068884203D1426CC0
:1019300042F4004242642068884208D0B0F1804FEF
:1019400005D00949884202D00849884204D18168FB
:1019500001F00701062903D0016841F0010101608F
:10196000002010BD002C0140000400400008004091
:1019700070B5040004D094F84100002510B106E0D1
:10198000012070BD84F84050204600F023F8242048
:1019900084F841002068C16821F40051C1602046EC
:1019A00000F000FB2068016921F49041016120688A
:1019B000416921F02A0141612068C16841F4005168
:1019C000C1606564202084F8410084F842006563AA
:1019D000002070BD30B585B00024009401940294BD
:1019E000039400681449884224D11448816941F461
:1019F00080418161816901F480410491816941F0F4
:101A00000401816180690E4D00F0040004904FF4E0
:101A10000070009002200190032003906946284640
:101A2000FFF716F92815CDE9000469462846029407
:101A3000FFF70EF905B030BD00380140001002403C
:101A4000000801402DE9F843044690F841001F4684
:101A500016460D46202802D00220BDE8F8837DB14D
:101A600076B100206064212084F84100FFF7EEF990
:101A7000A6848046E684A068B0F5805F02D003E0CB
:101A80000120EAE7206910B12E4600250EE000266D
:101A90000CE08021204600F0E1FAA0B9AEB116F8C2
:101AA000010B21684860E08C401EE084E08C4346D6
:101AB0004FF0000200970028EBD14FF04001204684
:101AC00000F0CCFA30B10320C7E735F8020BC0F3C1
:101AD0000800E6E7202084F841000020BDE7FEE78B
:101AE0003EB50021164800910191144A029102600E
:101AF0009215826001240473017502254FF460225F
:101B00000561C2614160FEF725FE08B1FEF79EFD4A
:101B100007200094CDE9014069460948FEF798FD89
:101B200008B1FEF793FD0095694605480195FEF75B
:101B30008FFD002801D0FEF789FD3EBD0024014045
:101B4000A8010020094808B5416941F0010141613F
:101B50004069002200F00100009011460B20FFF7C1
:101B6000E1F9BDE808400B20FFF7CEB900100240B4
:101B700030B585B0002000900190029003901A4883
:101B8000816941F010018161816901F010010491C6
:101B9000816941F020018161816901F02001049196
:101BA000816941F004018161816901F004010491BE
:101BB000816941F0080181618069012200F008001B
:101BC0000A4D5403049021462846FFF739F90121B4
:101BD0000320CDE90210CDE9004169462846FFF710
:101BE00037F805B030BD0000001002400010014081
:101BF00010B58EB000240794089409940A940B94AD
:101C00001C2168460C94FEF786FB27482549016095
:101C10004721C0E9011444F61F61C0E90314802183
:101C20008161FFF7DBFC08B1FEF710FD4FF4805037
:101C3000079007A91C48FFF713FD08B1FEF706FD42
:101C40001948FFF719FE08B1FEF700FD0B940BA928
:101C500015480C94FFF78EFC08B1FEF7F7FC6020E6
:101C6000CDE900040294002269460F480494FFF76E
:101C70009DFD08B1FEF7EAFC042269460A48FFF719
:101C800095FD08B1FEF7E2FC082269460648FFF719
:101C90008DFD08B1FEF7DAFC0348FFF74FFD0EB0EB
:101CA00010BD0000000400401C0200200C4810B5CC
:101CB0000A4901604FF4E1314160002181600C224A
:101CC000C160C0E904128161C161FFF751FE0028C3
:101CD00003D0BDE81040FEF7B9BC10BD003801408C
:101CE00064020020FEE7FEE770477047FFF7B4B8D4
:101CF00030B593B028216846FEF70DFB14210AA8E1
:101D0000FEF709FB002501200F95109511950104A0
:101D100012958DE8230004904FF4E010CDE90810EF
:101D2000022407946846FFF781FA08B172B6FEE70D
:101D30000AA90F2081E831004FF48060CDE90D053C
:101D400002210AA8FFF796F908B172B6FEE74FF430
:101D5000004011900F940FA8FFF716F9002801D04A
:101D600072B6FEE713B030BD70470000F0B50268F0
:101D7000164B174C174D4FF08047984205D0B8428C
:101D800003D0A04201D0A84203D122F070064A68D5
:101D90003243984205D0B84203D0A04201D0A842B5
:101DA00003D122F44074CA6822434C6922F08002B5
:101DB000224302608A68C2620A688262984201D144
:101DC0000969016301214161F0BD0000002C01405F
:101DD000000400400008004010B501F01F0301217D
:101DE000046A99408C430462016A9A40114301627B
:101DF00010BD10B5846842EA032224F47F440A43EC
:101E00002243826010BD826822F070020A4342F0D1
:101E1000070181607047000030B5036A026A22F052
:101E2000010202624268846924F073050C682C4345
:101E300023F002058B682B430A4DA8420BD123F0F7
:101E40000805CB6822F440722B434D6923F004034C
:101E500015438A692A434260846149684163036289
:101E600030BD0000002C014030B5026A036A23F047
:101E700010030362436884690D6824F4E64444EA6D
:101E800005248D6822F0200242EA05120B4DA8427B
:101E90000ED1CD6822F0800242EA05124D6923F48A
:101EA000406343EA85038D6922F0400243EA8503DB
:101EB0004360846149688163026230BD002C014047
:101EC00030B5036A026A22F4807202624268C46911
:101ED00023F4007324F073050C682C438D6843EAE7
:101EE00005230C4DA8420ED1CD6823F4006343EACC
:101EF00005234D6922F4405242EA05128D6923F40C
:101F0000806342EA05124260C4614968C1630362AA
:101F100030BD0000002C014030B5046A026A22F492
:101F2000805202624268C3690D6823F4E64343EAC3
:101F300005238D6824F4005444EA0534064DA84274
:101F400004D14D6922F4804242EA85124260C361A5
:101F500049680164046230BD002C014010B5036A79
:101F6000046A24F001040462846924F0F00444EA61
:101F7000021423F00A020A438461026210BD10B504
:101F8000036A046A24F010040462846923F0A00345
:101F900024F4704444EA023243EA0111826101628E
:101FA00010BD000070B5044600680169E26821F4C4
:101FB0004051114301612169A068084361690843E8
:101FC0002168CA6841F20C639A430243CA602068E0
:101FD0004169A26921F44071114341611E492068A1
:101FE000884202D1FFF7ECF801E0FFF7D9F800EBE7
:101FF000C00101EB0012606864218000B2FBF0F3C5
:10200000B3FBF1F36FF018067343B2FBF0F5B2FBCC
:10201000F0F605EB8305322303EB0515B5FBF1F56F
:10202000B6FBF1F605F0F00505EB0615B2FBF0F690
:10203000B2FBF0F0B0FBF1F06FF01802504306EB8A
:10204000800003EB0010B0FBF1F0216800F00F00FE
:102050002844886070BD0000003801402DE9F0413F
:10206000984617460E460446069D27E0681C25D074
:102070002DB1FEF7EBFEA0EB0800A8421ED92068A8
:102080000C3050E8001F21F4D07140E80012002A03
:10209000F5D12068143050E8001F21F0010140E81C
:1020A0000012002AF5D1202084F8410084F8420073
:1020B000002084F840000320BDE8F081206800681B
:1020C00036EA000004D00020B842CFD00020F3E769
:1020D0000120F9E7FEE70907090E002804DB00F1FB
:1020E000E02080F80014704700F00F0000F1E020BD
:1020F00080F8141D704700009AB0FEF7B5FEFFF798
:10210000F7FDFFF735FDFFF71DFDFFF7E9FCFFF7D2
:10211000CDFDFFF76DFDC82227492848FEF7F0FBEB
:1021200000212748FFF7D6FB04212548FFF7D2FB03
:1021300008212348FFF7CEFB224942F210700860C5
:10214000091D0860091D08600026DFF87C801A4D13
:102150001E4C4F1439464046FEF76AFE0A20FEF731
:1021600065FD66600020266035F810102268114475
:10217000216005EB400162684988801C114480B2EF
:102180006160C828F0D321686420B1FBF0F22260BE
:102190006168B1FBF0F30EA168466360FEF718F8C2
:1021A0006846FEF799F882B24FF47A7369460A4896
:1021B000FFF748FCCEE7000018000020A80100202F
:1021C0001C020020340400400010014000000020E8
:1021D00025642C25640D0A0064020020010202031C
:1021E0000405060708090A0B0C0D0E0F101000005D
:1021F00000000000000001020304060708090000B7
:102200000000010203040000282200080000002052
:1022100018000000280100084022000818000020D3
:10222000F808000044010008000000000000000061
:102230000100000010000000000000000024F40075
:04000005080000ED02
:00000001FF
